:020000041000EA
:10000000F2EB8871B8520010D8520010A80000100E
:1000100090A31AE7D3DEFFFF420101114403000061
:100020003600001000200820FF040000AC63000030
:10003000793512AB79A8972100109381B146172129
:100040000810130121FC171500101305B5EB7310F0
:100050005530732540F135ED1707000013070705EC
:100060000C4391C55043144731071D28D5BF971540
:1000700000109385A50717260010130626CB21A094
:1000800023A005009105E39DC5FEEF10100D6D281E
:10009000EF10500C0290FDBF884108C29105110677
:1000A000E36CD6FE82800100D852001000000020D0
:1000B000E8100020C06300100000082000000820A5
:1000C000C06300100010082000100820000000008D
:1000D000828021651305C5DF02850000130101FF41
:1000E000232481003714002083478426232611000F
:1000F0006392070293070000638A070037550010D8
:10010000130585EA97000000E70000009307100040
:100110002304F4268320C10003248100130101017C
:100120006780000093070000638E0700B71500206A
:10013000375500109385C526130585EA170300007F
:100140006700000067800000411106C622C426C275
:10015000EF10D0236545370400D0B70400022928EA
:1001600004DC04CC1305A00FEF1080071305A00FCB
:1001700004D0EF10E006F5B7B316A028370700D07B
:10018000B787034034C3910714D3B347F52098438E
:100190008566BE96134707041377070C378602401F
:1001A00098C23365C52015478D6658C1B6971307A9
:1001B000001098C3828039713753001022CC2A84F2
:1001C000130583EA06CE2ED232D436D63AD83EDA9A
:1001D00042DC46DEEF10F02501CC4C1022852EC605
:1001E000EF10207237550010130585EBEF107024C7
:1001F0000545EF10E075F3760430B71700209387BC
:10020000B742139737003317E028F19B2FA8E74434
:100210003378E800E31C08FE0F00300393D7350065
:100220003E950347050093F77500B317F028337820
:10023000F700631108025D8F2300E5000F00300313
:10024000B717002093870742A3850700A18A73A0F0
:10025000063082804111328506C6B13F737E04307C
:10026000B71700209387B742139837003318002937
:10027000F19BAFA80745B3F80801E39C08FE0F0007
:10028000300363F6C60015A8050663E8C602935757
:100290003600AA9783C80700137876003318002920
:1002A00033F30801E31203FEB3E808019356F601A5
:1002B000328523801701F58D11A07D550F00300385
:1002C000B717002093870742A3850700137E8E008F
:1002D00073200E3091E1828041113A8506C6E13DDE
:1002E000371700200345C70DDD469307150093F728
:1002F000F70F63F3F600C147230EF70C8280AA853F
:1003000037570010372500201307C7EB130545CAE0
:10031000FD466146A1B7B716002093860642814785
:10032000130600020F0030033387F6002300070096
:100330008507E399C7FE828081463D481D459305A8
:10034000400393F736008A073317F80013D62600C8
:100350004207518F733037BEB317F500C207D18FF4
:1003600073A037BE8506E39EB6FC736004308280BE
:100370009357550086073315A028C176E98E138759
:1003800017004205558F5D8D91C9733025BE7330BE
:1003900027BE732005BE732007BE8280733005BE62
:1003A000733007BE828093574500F3A707BEC18311
:1003B0003D8933D5A74882809377F500B317F0289D
:1003C0001181C207C98F73A027BE8280F3275030E6
:1003D000F19B3345F5200325050DB71700209387C2
:1003E00047E71D8D133505038280011106CE737713
:1003F0000430B71700209387974293963700B316BF
:10040000D028F19B2FA6D744758E6DFE0F003003C8
:10041000F327503013054503F19BB347F520944370
:100420006380D502B71700209387470A638AF600D6
:100430002EC62AC43AC2EF10A030B2452245124758
:10044000F3275030F19B3345F5200CC10F003003EA
:100450000F003003B717002093870742A3840700DB
:10046000218B73200730F24005618280797106D6B6
:1004700073780430B717002093879742139737009B
:100480003317E028F19BAFA6E744F98EEDFE0F008D
:10049000300337270020030387CA6343032AB718B2
:1004A0000020B3276320938848E733CE1721834683
:1004B000AE0093922700931E13002304D7CAF3279C
:1004C000503013054503F19BB347F52003AF0700F8
:1004D0009307F00233071F4163E9E71C8347BF001E
:1004E000FA8F6360F610A305CE00371600201306BE
:1004F00046EA3306C6412322BE00B7061000931514
:100500009600B7FE0F00F58DB37ED601938782006B
:10051000B386F800B3E7D501B7B5AAAA9385B5AA03
:1005200009873307B702135346017E031376E67F2C
:10053000B306DF40B3E7670052065D8E056393970D
:10054000160093D83600939576001366F62E93F82E
:100550004800B3F76700931EB0282320CE00230580
:10056000EE00B3E7170133F7D50193951600032684
:100570004F00D98F93F5056013D72600CD8F1377E1
:10058000071093981600D98F93D5160093F8080892
:1005900013171600B3E7170193F505048A0693F6BF
:1005A000860333776700CD8F3297D58FE97685063E
:1005B0001377078052061317B748D58F1366760E48
:1005C0002314FE001367770B1316F6282320EF0081
:1005D0002322CF00728F2DAA83C6B7006371D6186D
:1005E000BE8F0387AF00B327E720B3C71721E355BA
:1005F00007FE939315008567B3F3F300AE9393F36F
:100600000380D2059393B34893E5750EB16293E3EB
:10061000730B9395F528938222E493868F00B3069B
:10062000DE409A9EB3CE1E21939716008568B3F7DD
:10063000170193D8360093F8480023856F00B3E77D
:1006400017011313B02893987600B3F8680013933A
:100650001600B3E717011373036093D82600B3E7BE
:10066000670093F8081013931600B3E7170113738C
:10067000030893D81600B3E7670093F808048A06C6
:1006800093F68603B3E71701D58FE9768506D58FF4
:100690002394FF0023A07E0023A2BE0023945E00CB
:1006A0002385EE00A385CE00A5A0B7170020938771
:1006B000470A6312FF1AB7170020938747EAB387E8
:1006C000C74113979700B706100037FF0F0033FF9D
:1006D000E701758F93D647013367E701FE0693F76D
:1006E000E77F558FD207D98F7693717733431321E4
:1006F00093E7F72E130727E4FD562322B300A30543
:10070000C300728F2320F3002314E3002305D300DA
:10071000F3275030F19B3345F5202320E5010F00EE
:1007200030030F003003B717002093870742A384DC
:1007300007001378880073200830B250456182802A
:1007400032C82EC62AC442C2EF00907F372700204D
:10075000030387CA4246B2452245124889B383D370
:100760008F0093878200C6979392330093868F0001
:1007700093F20202B387F640969793D2130022D4E5
:1007800013F40204A2971394130013740408A2979D
:10079000139423004AD093F202302289969713D4FF
:1007A000230093D27300937309409E9793F2020142
:1007B0009373E400B3E272009313B0289697B37278
:1007C0007400B38757401394770026D29392170092
:1007D000B3747400056493D33700B3F2820093F3CB
:1007E0004300B3E2720093931700B3E2920093F3D5
:1007F000036093D42700B3E2720093F40410939340
:100800001700B3E2920093F30308B3E272009393EC
:10081000150093D41700B3F38300AE9313F40404CC
:100820008A07B3E2820093F78703697493F3038026
:10083000D205B3E7F2009393B3489302140093E513
:10084000750E225492540259B3E2570093E3730B8E
:100850009395F528E9B332CE2ECC76CA2AC842C683
:1008600072C41AC2EF00D06DB71700207246E2457D
:10087000D24E42453248224E1243938847E725BD67
:10088000F32750BE13970701814563490700918301
:1008900093F7F71F938747039395270073760430E8
:1008A000B717002093879742139737003317E02834
:1008B000F19BAFA6E744F98EEDFE0F00300337172A
:1008C0000020130747E7B307E540B7B6AAAA938607
:1008D000B6AA8987B387D70293974760F32650302B
:1008E000F19AAE9694426386A6048306A700638CB1
:1008F000F604830667016386F6068306270263848F
:10090000F6068306E7026382F60637270020834651
:1009100087CA2304F7CA2305D5000F003003B71791
:10092000002093870742A3840700218A73200630A2
:10093000828073275030B7160020719B2E979386C4
:10094000460A14C3D9B78146B3A6D620B3C6E6205B
:1009500071777D58130727E4238506012394E60069
:100960006DB78546D5B78946C5B78D46F1BFAA850F
:1009700037570010372500204111130787ED130565
:1009800095CA9546014606C6D138634605009307C9
:1009900030033385A740B24041018280B717002061
:1009A00093870742AE971CC18280011122CC26CAD0
:1009B00037140020B714002006CE1304040E9384CD
:1009C000840E637694024AC84EC61309F00FFD598F
:1009D0001C409DC33132AA852285C93723122401C8
:1009E0000F0030032104E36594FE4249B249F2400E
:1009F0006244D24405618280E530AA852285793F30
:100A0000230234010F0030032104E36394FCF1BF9F
:100A1000411106C622C42A84E130AA852285BD3F41
:100A2000FD572302F4000F003003B240224441017D
:100A30008280411122C42A84054506C6C930B717F1
:100A4000002093870742AA971CC00F003003B240D2
:100A5000224441018280B717002093870742AE9756
:100A60001CC10F0030038280B726002083A7C6CAAE
:100A700073770430139637003316C028F19BAFA567
:100A8000C744F18DEDFD0F00300383A7C6CA0F00E8
:100A90003003238007009377870073A0073033204B
:100AA0001000014581458280397106DE22DC26DA9C
:100AB0004AD84ED652D456D25AD05ECE62CC66CAEE
:100AC0006AC8F32750BE139707016349073213D949
:100AD00047009377C91F13793900B3192029B70B41
:100AE0000B406399073437270020B3C7272113072A
:100AF00007C7B3C7E72083AA07008D67938747041A
:100B0000DE97371A001023A03701130A8AAA7D54F2
:100B1000FD54039B8A0023AE3B0363580B0883D725
:100B20004A009397576063DE071483C76A00639790
:100B3000071E039B8A0063470B0403A74A01332B5C
:100B40006B21FD57336BEB20032C8B00032BCB0069
:100B50006303FC2AB346792103A78B029C4A330620
:100B6000EC40998F6360F60483A70B02B3D7274943
:100B700095CB5E85EF00700C63C66501E31BBBF887
:100B8000E37985F933201000F2506254D25442596F
:100B9000B259225A925A025BF24B624CD24C424DED
:100BA0002161828023A88601E9B783A74A01332CFB
:100BB0006B215E85336CFC20832CCC00032D8C00D4
:100BC000EF00B007E3CD95F56383BC1C63C50C1C37
:100BD00083270C0183254C016385472503978A00F1
:100BE00003552C004207598D82972E87AA87B3E6BA
:100BF000E7006382061A63590720B306FD40333DC0
:100C0000DD00B387EC40B387A74103170C00232412
:100C1000DC002326FC00E34407F003A84A01332547
:100C2000E72013161700336505214C4583288500FE
:100C3000E3C7B7EE6394F500E3E316EF2394EA000D
:100C400013858A0031A0832886004C4613161700AE
:100C50003A9663CEB7006383F51E3365062103170A
:100C600005003326E72033660621E35E07FC2310E8
:100C7000EC002310650183D74A0093975760E3C6C1
:100C800007EA83A70A017377043093963700B316F7
:100C9000D028F19B2FA6D744758E6DFE0F00300330
:100CA00083D84A00FD572392FA009398586083A78F
:100CB0000A010F003003238007009377870073A099
:100CC0000730E3C408E603A54A0103978A0033A866
:100CD00018213368A82093858A00634507020323FF
:100CE00088000326C80001A8638BC60E039707007F
:100CF000BE8563490700B327E720B3E7A720D447A1
:100D0000E354D6FE23901501831808002310E80051
:100D1000E3DD08FA83C76A00E38D07E023830A0056
:100D2000039B8A00FD555A87E30EBBE403A54A01E5
:100D3000B327E7203A86B3E7A72083D62700039797
:100D4000070013888A009396566063C206023E88A5
:100D5000E303B7DEB327E720B3E7A72083D6270056
:100D60003A860397070093965660E3D206FE80C743
:100D7000C4C7E30FCBFC2310E80083D68A00328B74
:100D80002390D7002394CA00E316B7FC6DB3E36841
:100D9000A5D9E3DF0CE203570C0083A70A012394D3
:100DA000EA007377043093963700B316D028F19B8E
:100DB0002FA6D744758E6DFE0F00300383D62A0010
:100DC00083A70A012310DC0023916A010F0030037E
:100DD000238007009377870073A0073089B3944777
:100DE000E376D3F023901501831808002310E80060
:100DF000E3DD08EC05B7E31F8BD5A5BB8549CE879E
:100E00000149B78B0B40C5B15E853AC63EC4352556
:100E1000A2473247B306F500B3B7A600BA95AE971E
:100E2000EDB39C492E852EC4829735D5A2459C41B1
:100E3000D84175BB8547B78B0B4075B1E3FF16E111
:100E40003DB5B7170020938707EC984B19C7372596
:100E500000201305C5CAA94591B641118D45370536
:100E60000B4006C622C4652B37140020930704EC00
:100E700037080B4023A60701EFF08FC6930704EC59
:100E8000AA850D452380A700370700D0032307005C
:100E9000B7160020D84B9386064237061100AE964F
:100EA0007D16BD4894CBA380670090C7239117019E
:100EB000FD5509439148154699462392B7002314DE
:100EC0006704231C17072318C7082314D70A9D4259
:100ED000A146A54F294FAD4E314E3543B948054681
:100EE000231CD70C2310A7062310570C2318F70F29
:100EF0002314E7112310D713231CC71323186714D7
:100F0000231417172310B7002318C702231C070048
:100F100037080B40B71500102320D80237270020D0
:100F2000938585AA232EF7C6EFF02FCC85450D4576
:100F3000EFF00FC42244B240B7270B40A146B4C320
:100F4000372500201305C5CAA945410181BC3715C5
:100F50000020130505EC8280797106D62A882E833D
:100F600095E73ACE36CC32CA2EC82AC6F929424372
:100F7000524632483305A3403335A300B305B6408B
:100F8000898DE2467247014563C6050C8327080137
:100F9000F3750430139537003315A028F19BAFA8E3
:100FA000A744B3F8A800E39C08FE0F0030038318A1
:100FB000280003250801A18963C1080A032E4801FE
:100FC000B3A71821B3E7C72103DE07002311C80127
:100FD0000F0030032300050073A0053083D52700E0
:100FE000054E13950801F295C605C581B3F5C50BED
:100FF000D8CB94CB23A46700D0C72391B7004D8DE5
:1010000003270801F3760430131637003316C0287F
:10101000719BAF25C744F18DEDFD0F0030030356E2
:101020004800032708012390C700231218010F006E
:1010300030032300070093F7860073A007300347AF
:1010400008008327C8008966938646043317E02882
:10105000B69798C3B250456182800F0030032300D9
:10106000050073A00530B2507D5545618280B28382
:10107000AA8710492E83F3750430131536003315F3
:10108000A028719A2F28A6443378A800E31C08FEF4
:101090000F0030038398270013F685008C4B63CE36
:1010A0000808C84B33A818213368A8200355080046
:1010B0002391A7000F003003238005007320063022
:1010C000035628008545139508012E96460645824D
:1010D0003376B60A232AE8002328D80023246800A0
:1010E000232678002311C800518D984BF3760430E5
:1010F000131637003316C028719BAF25C744F18DF6
:10110000EDFD0F00300303D64700984B2310C800B5
:10111000239217010F0030032300070013F7860006
:101120007320073003C70700DC47896693864604AF
:101130003317E028B69798C382800F0030032380CE
:101140000500732006307D5582800357A50093D794
:10115000054163D8E7045449B3A7F7201849B3E71A
:10116000D720F3760430131637003316C028719B4E
:101170002F28C7443378C800E31C08FE0F00300353
:1011800003D62700B3C5050813F78600B346060843
:10119000630BB6001C490F00300323800700732047
:1011A0000730014582806176D18E2391D700854733
:1011B0002303F50014490F00300323800600732039
:1011C0000730834605005845096613064604B316E2
:1011D000D02832973E8514C3828003451500828053
:1011E000011122CC26CA4EC6AA8406CE4AC8B12C0A
:1011F0001307803E3384E402B7070080FD17B3B4C1
:10120000E402B309A40033B48900AE94269463F4D5
:1012100087003E84FD599384A9FF33B934019307B5
:10122000F4FF3E99636A240363068902392C3385EF
:10123000A440B305B940B3B7A4009D8D634AB00282
:10124000CDC9A2856244F240D24442494E85B2499A
:10125000056129A4E3FC99FCCD2A81440149338529
:10126000A440B305B940B3B7A4009D8DE35AB0FCC8
:10127000E92A3385A44033B5A400B305B940898D6C
:1012800063C10502B716001037150020938686A6A5
:10129000130505EC0147A6854A86D13BFD57E302BD
:1012A000F5FAB7060B4037260020DC5263E727012A
:1012B0009856E318F9F8E37697F88327C6CA737748
:1012C000043093953700B315B028F19B2FA5B74490
:1012D0006D8D6DFD0F0030038327C6CA0F003003EC
:1012E000238007009377870073A007303320000026
:1012F0006DBF21D9B5BFF32750BE13970701635ABD
:101300000706B71700200111938707ECD84722CCB6
:1013100026CA06CE83C70700AA843A852E843EC615
:101320003AC4212A2247B247B305B440B3C7E720E5
:101330009C4B3387A440B3B6E400958D898F63CD71
:101340000504A9C933200000B7060B40D8528147D5
:10135000636B87009C56018F3337E000B3B797006B
:1013600093B71700D98FF2406244D2443E8505619D
:101370008280B7060B40D8528147636BB7009C56FA
:101380000D8F3337E000B3B7A70093B71700D98F9D
:101390003E858280E378F7FA4D283385A44033B543
:1013A000A400B305B440898D63C70504B7160010C7
:1013B000B7170020938686A60147A6852286138547
:1013C00007EC75316359A00237070B405C5363EBA0
:1013D000870218576394870063669702B717002047
:1013E000AA85138507EC9533B7060B40D852814781
:1013F000E36B87F685B737070B405C5363F78700CD
:10140000814795B733200000D1BF1857818FB3377C
:10141000F0003337970013371700D98FA9B7B78774
:10142000F4BFAA9793B717001385F18037560010C1
:101430003E95130646EF6FE01FDC4C51AA87885794
:101440002E87CC53E31DB7FE8280B7070B40CC53E9
:1014500088572E87CC53E39DE5FE828037070B40EB
:101460005C53E3EFB7FE639BF500B7070B4021A089
:10147000D8536395E5009857E36CA7FE828000007F
:10148000B70701403327A5203347F720032847003B
:10149000C1676373F8005CC39387F5FF9308C5FFCA
:1014A00081E793B72800B5E73728002013080882A2
:1014B000B347052103A307008D67BA97131EB02811
:1014C00023A0C7010A0563190302032307001606B8
:1014D0008567334666001376060EBA9790C30546B5
:1014E000637016078967BA971316B02890C34295A0
:1014F000C16714C15CC3828083274801B3D76702E8
:101500008507B3A7F72001009387E7FFE3DE07FE17
:101510006DBF8D67BA970D4823A007011C47858BC7
:10152000F5DF0328070016068567334606011376A4
:10153000060EBA97372800200A0590C313080882C0
:10154000832807003316B028B3C8150193F8380074
:1015500023A017011C47F18FF5DF69B7B7270020DB
:10156000938707823345F52008418280B727B7006B
:10157000938707B0B3D7B70283280500C2063207A6
:1015800033E8E6003356F60263C40804B787054023
:1015900011676300F506B727024098C3B7060240FB
:1015A000B737024098C3A1069C42B377F740EDFFDE
:1015B0000D670CC1110710C52A97930710021CC3B1
:1015C0001C41E3DF07FE23260501A1471CC38280DF
:1015D0001C4193F7F703E39BB7FA1C45D207D1836D
:1015E000E396C7FA5C4537770700F98FE39007FB6E
:1015F000828021674DB7B7B70D403707004098C3C9
:1016000029C5B7C607B0B747F84F37870D4093864F
:10161000360D9387D7F254CFA98F1CD34CD308D75C
:10162000B7B60D40B7070040370700029CC24D1700
:10163000B7A7014098C7B70700079CC201EEB7A73C
:101640000D403707008098C38280B7870D4023AED6
:101650000700F9B73346C6203346C6203346C620B6
:101660000E06B7070001637EF600B287A3A9F180DA
:10167000B7870D40D0C337070040B7A70D4098C3C8
:101680008280FD173E86DDB7B78710403325A52041
:101690003345F5204CC185471CC18280A1679387E3
:1016A000A7DF83D7070085458287411122C426C260
:1016B00006C6AA842E846345050005C613E4050307
:1016C000A1679387A7DF83D70700116585451305B9
:1016D00025258297AA87A6862286A945130520106C
:1016E000829713E40502E9BFB7170E4093878782FC
:1016F00098437DDF0F0030038280B7170E40371705
:101700000E409387C7801307C7820F00300323A0C2
:1017100007009107E39BE7FE82808567938707AA0E
:10172000378704401CC39307A0115CC7B7B6FA0003
:10173000B7A7044094C35C43E3DF07FE8280828046
:10174000375500104111130585F106C6EFE0BFA61D
:10175000411122C426C237540010B754001006C6E7
:10176000130484E6938404EA637794001C40110414
:101770008297E36D94FEB2402244924441018280FC
:10178000B747EFEF9387F7B7B72602403707F40361
:101790009CC25917B7370240B706024098C3A1064A
:1017A0009C42B377F740EDFF8280B7071150F847AE
:1017B000A1676303F7008280B72711503707040041
:1017C000F8C78280370700207D17B7370240B70679
:1017D000024098C3A1069C42B377F740EDFF828098
:1017E000156541111305352506C64D3DB240AA8742
:1017F000114541018287156541111305352506C63E
:10180000713DB240AA870545410182876FE0BFB0B4
:10181000411122C406C626C24AC037040140232211
:101820000408E53DB73701400547D8DF7C40E39F1A
:10183000E7FE0D47B737014098DB05443707014005
:101840001C5FE39F87FE37366859A285130606F0B2
:101850000947954637050540113B1547379686479A
:10186000BA86A285130606C0378505400133B72620
:10187000B700938606B00146894511451131B7D6A8
:10188000F008A2859386061801461545D53EB77621
:10189000DC02938606C0014681452145D536B776E0
:1018A000DC02938606C0014681452545D13EB7D668
:1018B000F00893860618014681451945D136B7D6FA
:1018C000F00893860618014681451D45553E114591
:1018D0007131B7E71B43938737E8B334F50201440E
:1018E0001949C9802285A6850504793BE31C24FF9C
:1018F000B2402244924402494101828011E1828037
:1019000079A483A77181011106CE91CFAA863725CC
:1019100000102E871305C58F6C007D568297F2400C
:101920000545056182803126F240014505618280CE
:101930000D45731025BE7D15E35D05FE0565130598
:10194000058073104530736004307310003482805A
:101950000290FDBF411106C6E53F411122C426C2D7
:1019600037540010B7540010130404EA938484EA37
:1019700006C6F93B637794001C4011048297E36D1F
:1019800094FEB24022449244410182801C412E8543
:10199000B28582878347550101114AC806CE2E8938
:1019A000C1C76354C00622CC26CA83C7050032844F
:1019B000AA84D91781E783474501A1CF854701460E
:1019C0006304F40293061900854703C706003E88A6
:1019D0008507591709E703C7F6FF4D1729EF850655
:1019E000E315F4FE635886009C40B305C4403305FC
:1019F000C9008297B305890083C7F5FF6244CD17FC
:101A000093B71700238AF400D244F240424905619B
:101A100082801C41375500101305452B894582975C
:101A20000546E311C4FAF9B71C41F2404A85424920
:101A3000B28505618287B305C8403305C900635884
:101A40000601984036C63EC40297B246A247984067
:101A5000375500101305452B894536C63EC40297FD
:101A6000A247B2463E86A5BF397122DC26DA4AD8A3
:101A700056D206DEB28A4ED652D45ECEAE842A89C3
:101A80003684E132B7470F0093870724AA9733B60D
:101A9000A700370700802E967D17BE856374C700A8
:101AA0003A86FD55371A002013050A0E97E0FF0FFE
:101AB000E7800064FD57AA8B6381F40A39C4B72913
:101AC00000109389499903A4F1811DC063940A040D
:101AD00029A0638C8700004801CC1C402686CA855B
:101AE0002285F5DB83A7B181EDF78299004875F473
:101AF000639E0B04F25062544259B259225A925AD0
:101B0000F24B2685D25421618280B7290010938937
:101B1000C99855BF5AD0294B29A0638C870000482B
:101B20001DC01C402686CA852285F5DB83A7B181AE
:101B3000EDF7829922859305F1000546A30761011F
:101B40008299004879FC025BE3860BFA13050A0EC2
:101B500097E0FF0FE780C06471BF4A85EF3000282F
:101B6000AA84A9BF83A7F1811387F18199C76389EB
:101B7000A700138707019C4BFDFB91C108C382801E
:101B8000FDFD944B14C323A8070082807DAB7971BF
:101B90004AD006D622D44ECE52CC2A89A307A10021
:101BA000EFF0BF8AB7470F0093870724AA9733B691
:101BB000A700370700802E967D17BE856374C70087
:101BC0003A86FD55B71900201385090E97E0FF0FDF
:101BD000E780005203A4F1812A8A05C426D229A0F5
:101BE000630DF400004809CC1C4005469305F10044
:101BF0002285EDDB83A7B181E5F7693B00486DF4F1
:101C00009254631A0A00B2502254F249624A4A8539
:101C10000259456182801385090E97E0FF0FE78026
:101C20002058B2502254F249624A4A85025945610D
:101C30008280411106C622C426C22A84EF30001ACF
:101C4000AA8485462285A6853686393D03A4F1817E
:101C500011C45C4091CB8297004865FCB24022449D
:101C60002685924441018280004865F4B2402244B6
:101C700026859244410182808280A38101828280F4
:101C800003C755009307F00F0145631DF70083C795
:101C9000650089EB83C77500FD1781E71336960051
:101CA00019C20145828003C725002545A381E18231
:101CB00082800545828085476384F50005458280E2
:101CC000834756008346460003C73182A207D58F5B
:101CD00001456303F7008280411106C68347160061
:101CE0006380B70209476385E700B2404101828003
:101CF0000145130640068145EFF0FF8F0545F5B716
:101D00008345360003472600A20593F70510D98DB9
:101D100089CB13D695003285058A93F5F507EFF048
:101D2000DF987D5513D69500C5BF375500101305B4
:101D3000C511828085476390F50283471600639E34
:101D4000B70003475600834746009D4622075D8F34
:101D500081476307D7003E85828081473E85828028
:101D6000B7570010B2859306600A138647076F10B5
:101D7000A06A0547B75700102300E5001385470503
:101D8000828083C6150003C6050003C7250083C7EC
:101D90003500A206D18E4207558FE207D98F13076F
:101DA000004B6383E70082804111014681457D55E8
:101DB00006C6EFF09F8FA3AFA182A3ADB182828050
:101DC00003C5F1826FE04FDF138731831C4341115C
:101DD00006C622C426C24AC0B5C7F376043013969D
:101DE00037003316C028F19BAFA5C744F18DEDFD38
:101DF0000F00300354C31C43238801820F003003BB
:101E000023800700A18A73A006300144814403C5E2
:101E1000F182EFE04FD919E90144B2402285224412
:101E200081440249A68592444101828003C5F18222
:101E3000EFE08FD8B240228522440249A685924421
:101E4000410182801304803E8144D1B7411126C2F2
:101E5000AA8401454AC006C62E89EF10101059C148
:101E60000145EF1090133DCD22C4EFF00FDEB747D0
:101E70000F0093870724AA9733B6A700370700807F
:101E80002E967D17BE856363C7041385318497E062
:101E9000FF0FE780E02531C50145EF10100C09C5A3
:101EA0000145EF10900F15E581457D55EF00F03BA2
:101EB000F5541385318497E0FF0FE780602E2244AC
:101EC000B240024926859244410182803A86FD55FE
:101ED0006DBFA6854A860145EF10900EAA8471F960
:101EE000C1BF2244F554E9BF411106C622C4EFF038
:101EF000CFD5B7470F0093870724AA9733B6A7001B
:101F0000370700802E967D17BE856374C7003A861A
:101F1000FD551385318497E0FF0FE780601D15C1E3
:101F20007D558145EF0070340145EF1090146DF937
:101F3000138531842244B240410117E3FF0F67004B
:101F40002326B24022444101828001114AC84EC674
:101F500006CE52C4AA892E89EFF02FCFB7470F00C3
:101F600093870724AA9733B6A700370700802E96D9
:101F70007D17BE856374C7003A86FD55138531848D
:101F800097E0FF0FE780C01619E5F2404249B249D9
:101F9000224A056182800145EF10207C45C922CC90
:101FA00056C20144635020050145EF10D01E2A8619
:101FB000B30789403346F60AB3858900014521C23B
:101FC000EF10D01681452A947D55EF00102A014567
:101FD000EF10300AEFF06FC7A3A3A182A3A5B182CF
:101FE000E34424FD6244924AF2404249B2491385D7
:101FF0003184224A056117E3FF0F6700631A8145A8
:102000007D55EF0090260145EF10B0060145EF1019
:10201000C074AA870145F9D7EF10F01771F1EFF0FE
:10202000CFC283A7718237A7070083A6B1821307A7
:1020300007123E97B337F700B697E3E5B7FAE39197
:10204000F5FAE361A7FAE34124F769BFF240424998
:10205000B2498146014713853184224AA3A3D18224
:10206000A3A5E182056117E3FF0F67006313411128
:1020700022C413853184814506C697E0FF0FE780AF
:1020800060F839E5138731831C439DCFF376043024
:10209000139637003316C028F19BAFA5C744F18DC6
:1020A000EDFD0F00300383C70183854554C393F7CB
:1020B000F70F18432388B1820F0030032300070075
:1020C000A18A73A00630A1C7B24022444101828098
:1020D00081457D5526C2EF0050190145EF10E06B98
:1020E000AA841385318497E0FF0FE780600B99C8BD
:1020F00083A7F18381CB22449244B24003A5B183EC
:1021000041018287B2402244924441018280EFE043
:102110001FE42A84EFF06FB39307853E33B6A70020
:10212000370700802E967D17BE856374C7003A86F8
:10213000FD5522852244B240B7260010938686DCE6
:102140008547014741016FE03FE14111B70700D0EA
:1021500022C4804306C6EFE09FDFEFF00F886307DD
:102160008500B2402244014541018280B7570010EA
:1021700083C7472D81450145EF10307E138531849B
:102180001C41C5CB0545EFE08FFEB7250010AA879F
:102190001375F50F9385E506A387F182EFE0EFA4B1
:1021A00003C5F1828545EFE0AF9C3945EFE00FA212
:1021B00025E19387318323A0070023A20700EFE0E6
:1021C0001FD92A84EFF06FA89307853E33B6A70086
:1021D000370700802E967D17BE856374C7003A8648
:1021E000FD55B72600102285938686DC854701477A
:1021F000EFE09FD6E34705F6371500201305850A63
:102200008545EFF03F96B24022440545410182806A
:102210000545EFE0CF8EAA8513853183EFE0BF83BC
:10222000B7250010938505DC01463945EFE00FA482
:10223000E1B7EFE0EFFDB9B7375500101305851B87
:10224000828037550010130545168280B72700207D
:1022500083C607C9011106CE2A87A5C605E337251F
:10226000002093079040130585842311F500930700
:1022700040302310F500F24005618280954763EC01
:10228000E704B75700109387C7143725002033475A
:10229000F720130585841843130625008147CD4593
:1022A00039A02310D600050709066383B7028346C9
:1022B0000700850793F7F70FEDF6860793E70730DA
:1022C0004DBF2AC6C545138507C99120324779B746
:1022D0009307803279BF014579BF156539711305C0
:1022E000753406DEEFF08FBBAA8705466800A5456A
:1022F0008297D24762471386B18493D787695CC2BD
:10230000F25013578769A3A5E18421618280854734
:102310006385F51A9387B18403C707002548FD1527
:102320009356474013860603634CD8182300C50014
:102330008546638FD51C3D8B254693060703636452
:10234000E618A300D50009476384E51C03C71700FE
:10235000254893564740138606036349D816230140
:10236000C5008D466386D51A3D8B25469306070327
:102370006361E616A301D5001147638BE51803C717
:102380002700254893564740138606036346D81412
:102390002302C5009546638DD5163D8B25469306D1
:1023A0000703636EE612A302D50019476382E516A0
:1023B00003C73700254893564740138606036343F7
:1023C000D8122303C5009D466384D5143D8B254652
:1023D00093060703636BE610A303D50021476389C7
:1023E000E51203C747002548935647401386060366
:1023F0006340D8102304C500A546638BD5103D8BE0
:102400001306070363E9E60EA304C50029476381A9
:10241000E51003C757002548935647401386060327
:10242000634ED80C2305C500AD466383D50E3D8BA6
:102430002546930607036366E60CA305D5003147DE
:102440006388E50C03C76700254893564740138609
:1024500006036354D800138676032306C500B546E9
:102460006388D50A3D8B2546930607036374E6000F
:1024700093067703A306D5003947638BE50883C726
:102480007700254613D74740930607036354E600B9
:10249000930677032307D5003D47638BE506F98F45
:1024A000A5461387770363E4F60013870703A307A2
:1024B000E500C147638EF5044105230005008280D5
:1024C00013867603A5B593067703A5BD1386760319
:1024D00079B59306770379BD1386760355BD9306C8
:1024E0007703D1B513867603E9BD93067703EDB57F
:1024F0001386760301B71306770339B7138676037D
:1025000015B793067703A305D5003147E39CE5F2A1
:102510002E95230005008280411106C622C47D2C21
:1025200037041150B147B70500203CDC9385653373
:102530001306F00F3945EFD07FF3B72700201306BD
:102540000004138507878145EF200069AA870545A8
:10255000A380A700B705105023A205082E871308F3
:10256000000823200708930607101306000442976B
:102570009385450898D7239CC70023A20700A38012
:102580000702239CC702A38D070223A207022391FF
:1025900007038CC7D4C7D4D797E0FF0FE780C0C329
:1025A000054528C037070020F56778C4C1072328F0
:1025B000F408B2402244B72711504167F8C74101DF
:1025C0008280854539456FD0BFDA37250020130555
:1025D00005890146814589A4A389B18499C5B72796
:1025E00011503707020023A8E708828083C705003F
:1025F00093F7F70791C3828003C715009547E31C43
:10260000F7FE03C72500B707115098C3828003C6A1
:10261000350005480D8A6302061103C5250003C76E
:10262000550083C54500935675009378F507B3A709
:10263000D8203723002022074D8F960713030387E6
:102640009A971377F77FB3C506012381A700A3816B
:102650000700A38DC700239CE700A380B700638514
:102660000609B70510509385450813956800B3E532
:10267000B8201A950CC523A0050063850808B70784
:1026800010509107B3E7F8205CC101111307F7035D
:10269000198306CE8947931577006304F6009315D6
:1026A000670003A67185B3A7D82096073307B60045
:1026B0009A97A3ABE184D0C7B7151050637AB706D9
:1026C000B3A7D82096079A9703C7B701B70510504C
:1026D000D4432D8E9317A701F240D18F9397F729FA
:1026E0009CC2054505618280B70710509387070893
:1026F00093956800B3E7F8209A959CD523A007002E
:10270000639F08009606B70710509A9693870710A4
:1027100023A20600DCC6054582800145828037057C
:10272000105021059387F8FFB3E7A720DCD1B1BF94
:102730003EC636C446C2EFF0AF80B247A2469248CA
:10274000D047B7270020138307879DBF17E3FF0FEC
:10275000670083A893F7F5079D81B3A7B7203725B6
:1027600000209607130505874111B2853E953686F0
:1027700006C65D20B24005454101828013F5F5078C
:1027800019E593B715008507372711503CD79D8170
:102790003325B520B72700201605938707873E9578
:1027A0001316B028814517E3FF0F6700633493F7D2
:1027B000F50791E382809D81B3A7B72037250020DC
:1027C000960713050587FD753E959385F57F0146B0
:1027D000A301050017E3FF0F67008331411106C60F
:1027E000B7270240B706001094C337070240B73737
:1027F000024094C321071C43B3F7F640EDFF056682
:10280000814537051050EF20203DB240B7071150E9
:102810002547F8DB41018280411122C406C6854765
:10282000231AC500231B05000CC9230DF5002A84BB
:1028300097E0FF0FE780202619C5B727115037070B
:10284000020023A8E708228597E0FF0FE7804027D2
:1028500001C98547230EF400B24022444101828021
:1028600022852244B240410117E3FF0F6700832D08
:10287000011126CA4EC6B759001022CC4AC852C40C
:1028800003C7F18606CE2A899389492701448147E7
:1028900015A083A73187B697A5CFDC474A850504E5
:1028A000829703C7F1861374F40FA287930617006B
:1028B00063CA8600998F931654009607E36BE4FC75
:1028C000CE97E1BF371500201305054413064005D8
:1028D0008145EF206030B7160020FD5793864644AF
:1028E00037170020DCC69CC613074745DCC29CC2D4
:1028F0001CC35CC31CC75CC71CCB5CCB1CCF5CCFB0
:10290000F2406244D2444249B249224A056182807F
:102910000290F2406244D2444249B249224A0561DF
:10292000828082808280014582800145828082800F
:10293000828082808280B71700209387074403C576
:1029400017003335A0008280B71700209387074413
:102950008843135525488280011152C4371A00203C
:102960000347DA0D06CE9307F00F6318F70E638B5B
:10297000050E56C2AA8A37150020130640055AC014
:10298000130505442E8B814522CC26CA4AC84EC663
:10299000EF20802413853186A38B0186EFE04F87DB
:1029A00037150020138431861305450DA3AF8184AC
:1029B000EFE02F88371400201305040CEF20E016F9
:1029C0001304040CB7270010A3A58186938727D78B
:1029D00099C71385F186EFF0CFB9A3A9A18637591E
:1029E000001003C7F186130949270144814715A048
:1029F00083A73187B6979DC7DC438DC7829703C7EE
:102A0000F18605041374F40F93061700A28763C7B9
:102A10008602998F931654009607E36BE4FCCA97DD
:102A2000DC43E9FF02906244D2444249B249924AEF
:102A3000024B0145F240224A05618280DA855685C3
:102A4000A30E5A0DEFF05FAD71DD56859D3E6244D9
:102A5000D2444249B249924A024BF240224A0545C9
:102A60000561828002900145F1B75971DAC8371BC0
:102A700000200347DB0D86D69307F00F6304F71E93
:102A8000A2D4CECE37540010B7190020A6D2CAD097
:102A9000D2CCD6CADEC61304C41C9389094421498A
:102AA00083ABB18683A74B017377043093963700CD
:102AB000B316D028F19B2FA6D744758E6DFE0F005C
:102AC000300323ACEB004C105E85EF10B03903A748
:102AD0004B0183A78B010F00300323000700A18B5C
:102AE00073A007306309051683475102636EF9141A
:102AF000B3C787209C438287A257DDD33255829784
:102B000045B78345810293F6F50713D77500B3A740
:102B10003621BA9703C74703799B238AE70203C785
:102B200047036D9B238AE7026382061483C747012C
:102B300003C7F18663FCE71003A731879607BA97AE
:102B4000638A07109C4FB256034691020345410227
:102B50008297B9B783C77187638E070E83C7718762
:102B6000FD17A38BF18683C771879DFBB7170020E4
:102B7000938B074483C70B00E2C4014593E717001A
:102B80002380FB0083C74B03034C4102F99B238A3C
:102B9000FB0283C74B03ED9B238AFB0283C75B03C6
:102BA000F99BA38AFB0283C75B03ED9BA38AFB020D
:102BB000EF00F0168347810213070006F98F638F39
:102BC000E700130700046385E70E225785467D8BD7
:102BD000630BD7148946630CD70E4DCB0290034587
:102BE00041028145613E0345410293050008793663
:102BF000264C7DB583A70900858BE38307EA1D3B3F
:102C000045B503454102AD31EF00900FA257238136
:102C1000F90079B583C73900858BE38307E822552E
:102C20001133BDBD03454102A131EF00700D0933E1
:102C300085BD83A70900858BE38407E603A509000A
:102C400013553548FD31A9BD029099BD9306170073
:102C500063D6F6020290265496540659F649664AFF
:102C6000D64AB64BB650464B65618280B256034693
:102C7000910203454102EF0050101DB5998F37575F
:102C80000010960713074727BA976DBD1307000278
:102C90006386E722A1F7834791022547E360F7F4B3
:102CA000375700101307071FB3C7E7209C438287DD
:102CB00037250010130545D3EF00700662853010EC
:102CC0008545EFF02F87E30C05F0264CD1BB8345FB
:102CD000C10213F70507E31307F013F7F507B3264F
:102CE000772113D87500C29683C6460103C6F186C4
:102CF00063E7C60A130516006342D520918E375646
:102D00000010960613064627B296638C071EC84A23
:102D100036C2EF00D000924662853010DC4A85450D
:102D2000829745F56DBD8346C1023D47E369D7EA09
:102D3000B387DB0083C7470003C7F18663EAE70672
:102D400093061700E3CDF6E8B38BE740B7570010C2
:102D5000960B93874727BE9B03A54B01EF00207C72
:102D600083A74B01301062858545829739FD8347E3
:102D7000810293F70706E39407E683479102854BA8
:102D8000D917E3EEFBE4EF00807903479102A947EE
:102D90006306F72462852C10392D264C11B303A647
:102DA00031879606B296638E0714E38A06E285B7EA
:102DB00003A731879607B30BF700E39F0BF805B520
:102DC0008347A10203C71B006382E71E03C71B00E2
:102DD000631D0732A380FB006388071CFD1713F5F2
:102DE000F70FEFF00FC609C9E6C283471500BE8C86
:102DF00089476382FC22964C02900290A3800B00CC
:102E0000F9BB83C71B0062858546130621022C107F
:102E10002301F1021125264C61B10355A102BD47E2
:102E2000135785001375F50FE3EBE7DAB75700107A
:102E300093878721B347F7209C4382872810ED258D
:102E40008345A1026285EFF04FF883C70B00264C43
:102E500093E727002380FB00A1B10357A102854718
:102E6000E31FF7D683C70B0062852C10DD9B238000
:102E7000FB009123264C2DB183C70B008946628548
:102E800013D72700758F93D75748D98F1306210280
:102E90002C102311F1024923264C19B10357A1022A
:102EA0008547E31EF7D283C70B0062852C1093E79A
:102EB00087002380FB000123264CDDB68346C10238
:102EC0003D47E36ED7D0B387DB0083C7470003C716
:102ED000F18663FBE70403A731879607B30BF7007E
:102EE000E38F0BCE03A54B011D2D83A74B016285FC
:102EF000301085458297E31A05DCD5B18146E39011
:102F000007CE83479102054513F6D70F630BA60240
:102F1000E39607CCB3277721C29783C7470362851F
:102F2000894693D717489DB793061700E3C9F6CA99
:102F3000B38BE740B7570010960B93874727BE9B8C
:102F400055B70355A10205ED36C642C43AC2034542
:102F5000DB0D638FC708EFF07F8212472248B2462D
:102F6000B3277721C29703C7470313672700238A34
:102F7000E70203C7470313671700238AE702E386C4
:102F800006D4C84A36C2612B924630108545DC4AC9
:102F9000628582970145612383A74B0393D78748B6
:102FA000E38A07DE264CEDBCEFF09F9862852C107B
:102FB0001921264CF5B4EFE05FD72A86E30105C25C
:102FC00083473600834626006285A207DD8E2C10DB
:102FD000A121AA87E38507C0264CD9B46285DE8685
:102FE0002C1013062102230101023D21264C4DBC69
:102FF000EFF0EFFB12472248B246B3277721C29782
:1030000003C74703759B238AE70203C74703799BDE
:10301000238AE702ADB7EAC06EDE03477500B71535
:10302000002083C605449357674813575748120733
:103030009607D98F13F7F6FCD98F2380F544834781
:1030400035008346250037170020A207D58F375655
:103050000010330DF5009307474593059500930D38
:1030600046273EC263FDA50983C715002D47854845
:103070006399E70083C7050083C83500BE9583C701
:10308000150011476393E70683C7F1863303BD40FC
:10309000334303088146014763FEF60483A7318763
:1030A00013965600B297B1C303AE07011A86628524
:1030B00036CE46CC1AC62EC43ACA3EC8029E2A86CE
:1030C00013359500A2453243E248F24609E5C2476E
:1030D0005247637AC30A83C7F186850693F6F60FD3
:1030E000138617003687E359D6FA0290964C064DA0
:1030F000F25D21B3B307F7409607EE9775B7EFF08F
:103100001F83964C064DF25D55B5814562853EC4E0
:10311000EFF08FCC6285EFF06FE303C72B00628581
:103120003AC2EFF0EFF41247A2472381EB005DB102
:10313000EFF06FFF2A86E30405AA83460600628546
:103140002C10D92CAA87E39907E851BC8355C102FA
:10315000EFF0CF8F2A8675F159B48947630AF708D3
:10316000EFF0AFFC2A86E31D05E495BCEFF0CF8CB1
:103170002A86E30505A66285C9462C10712CAA870C
:10318000E39C07E4A9BC0545638BA8046389080296
:1031900003CE250081471303F00F01A8850793F79D
:1031A000F70F2302D50063FC17013305FE001375EA
:1031B000F50F5E95834E4500E3826EFE3DB71245E6
:1031C0003AC832C62EC4EF10801183C7F186A245DB
:1031D000324642478507B295E3D6E7E839B7884BD0
:1031E000B7470010938747B0E314F5FAE6884DB768
:1031F000EFF02F852A86E31505DCCDB25DCE79711F
:103200005AC8371B002022D426D24AD04ECE52CCE8
:1032100056CA5EC662C466C206D66AC02E84BE8B1B
:10322000BA8A3689B284130B0B44814C9549371CFA
:103230000020054A25A883452B00034DDC0DEF1027
:103240002003AA87A2856A85A9C3EFF04FBC1DCDD4
:103250008347240013D77700630A47052380FA00C9
:10326000850C638A9405834704003E9483471400C9
:103270002285639D3701834534008D89639825013C
:103280008345240093F50507DDD5029002900145A2
:10329000B250225492540259F249624AD24A424BE5
:1032A000B24B224C924C024D456182802380FB0040
:1032B000850CE39A94FB0545E1BF0545828083C7F1
:1032C000250093F7070781C70290014582804111CD
:1032D000B717002026C22E85AE8483C52744B717B2
:1032E000002022C406C603C4D70DEF00707801E9A0
:1032F0000290B240224492440145410182802285DD
:103300002244B240A685924441016FF04FB013D7DA
:10331000750093F7F507130747033715002083A5BA
:10332000F185B3A7E720130505443E956F001068AB
:1033300013D7750093F7F5071307470337150020D8
:1033400083A5F185B3A7E720130505443E956F00DB
:10335000F06C3715002093F7F5071305054413D7D4
:103360007500B3A7A720BA9703C74703058B01C70A
:1033700002900145828003C74703371500200345AB
:10338000D50D011106CE13671700238AE7023EC64A
:10339000EFF04FBC11EDB24703C74703799B238A77
:1033A000E70203C747036D9B238AE70202900145AA
:1033B000F2400561828003C6450083C6550003C7FD
:1033C000650003CE050003C3150083C8250003C8AC
:1033D0003500B71700209387C7402382C700A38218
:1033E000D7002380C701A380670023811701A38131
:1033F00007012383E70003C7750023A60700814662
:10340000A383E70083C5050023A4070093070008F2
:103410000146B3F5B74035BF03C8550003C7650083
:1034200003CF050083CE150003CE250003C335006E
:1034300083C845000111B717002006CE9387C74007
:103440002380E701A380D7012381C701A3816700FF
:1034500023821701A38207012383E70003C77500B6
:1034600090C723970700A383E70003C7750003C82D
:103470006500220733670701B356D70A2396D700A2
:1034800005CB2A88A9C61DCE838707001307000431
:10349000B3D6E60A63C60704371600201306C63CF7
:1034A000814542857D3519CDF24005450561828013
:1034B00083C505009307000881460146B3F5B74070
:1034C000493D7DF10290F24001450561828083C54E
:1034D0000700014693F505084285A53D71F5DDB766
:1034E000B7170020B2852AC636861385C73C36C476
:1034F000EF10407C3248A2462A8693050008E9BFB7
:10350000B71700209387C74023A0070023A2070016
:1035100023A4070023A6070023A807008280B7176B
:10352000002023AEA74082800347650003430500C7
:1035300083481500034825008345350003464500B0
:1035400083465500B71700209387C7402380670044
:10355000A380170123810701A381B7002382C7003D
:10356000A382D7002383E7000347750023A4070045
:1035700023A60700A383E7008280B7170020938764
:10358000C7409843011122CC06CE9D81135777483E
:103590002A84630BB70299C60290F2406244014547
:1035A00005618280BE85EFF06F84B7170020938796
:1035B000C740984B09C73E8622858D450297054531
:1035C000F24062440561828003870700634107027D
:1035D000884761D5B715002036869385C53C36C629
:1035E000EF10406DB246B71700209387C74003D74E
:1035F000E7008C4703D66700369733470708B69530
:103600002397E7008CC7630FE60293B606049DEA92
:1036100003D6C7008387070013050004B306E640FE
:10362000B3C60608B3D6A60A63C107066302C70875
:10363000371600201306C63C81452285193B29DD3B
:103640000545BDBF984B11CB3E8689452285029723
:10365000B71700209387C74011CD83C50700930794
:10366000000822858146B3F5B7400146DD310DD50E
:103670000545B9B781452285EFF04F902285930526
:103680000008EFF0AF8F054525BF630FC700B717E0
:10369000002036861385C73C36C6EF10A061B246BF
:1036A0002A869305000851BF93050008014671B7AB
:1036B0008145014659B7011126CA06CEAA84EFF00A
:1036C0008FA709E5F240D24405618280EFF0CFA7D1
:1036D00075F937170020B3C79420B3C7F720130735
:1036E0004730B3E6E72003C636008E0761DEC10728
:1036F00022CC3384E700228536C6EF00907393070F
:10370000F00363E4A700624475BFB246014583C578
:103710003600EFF0DFBF65D92285EF009071B24629
:103720009307F00383C5360063F2A7026244F240B8
:103730009397740037160020D244130646283E960D
:1037400093060004014505616FF0BFC06244F2407A
:10375000D244014505616FF0BFBD411122C406C6C8
:103760002A84EFF04F9D11E5B2402244014541010A
:103770008280EFF06F9D6DF9B347842037170020EA
:10378000B3C7F72013074730B3E7E72003C5470067
:10379000B24022440589410182803345A52033454A
:1037A000A5209317350037150020C10713054530B4
:1037B00041113E9506C6EF003064B240410182805F
:1037C0003347A520C16701113347E720FD1722CCFD
:1037D00026CAB337F60013143700B71400201307B6
:1037E0000401FD17938444304EC65D8EB3099700E3
:1037F0004AC8334606082A894E8552C406CEEF00D1
:1038000010742A8AEFF02F9311E9F2406244D244F7
:103810004249B2495285224A05618280EFF0CF9237
:103820006DF5A29483C73400EDD34E85EF00706030
:103830001304F003E37BA4FC83C534000145EFF0DF
:103840001FAD61D54E85EF00D05E83C53400637E29
:10385000A400371600201E09130646284A96930630
:1038600000040145EFF0FFAE4DB70145EFF05FAC4E
:1038700069BF011126CA06CEAA84EFF0CF8B11E5ED
:103880000145F240D24405618280EFF0EF8B6DF983
:10389000B3C79420B3C7F7208E073717002093864D
:1038A00047021307473022CC3384E60022853EC608
:1038B000EF00905415C1B717002013874730B24767
:1038C0004AC80145BA9783C527003E89EFF03FA457
:1038D00011E5624442496DB762445DB79397740045
:1038E000371700201307472893870704BA97BE8528
:1038F0002285130600043EC6EF007064834529004C
:10390000AA8609CD32462AC60145EFF09FA4AA87B0
:10391000324591EB0290624442499DB7EFF05FA1BE
:1039200062444249B1BF62444249A1BF411122C42D
:10393000C1673344A52033448420FD17B337F60014
:103940000E0437170020FD171307473013044402F5
:103950003A945D8E26C233460608AA84228506C69E
:103960004AC0EF1000002A892285EF00F048930733
:10397000F00363E9A700B240224492444A85024919
:10398000410182802685F535B240224492444A8521
:103990000249410182803345A5203345A520931774
:1039A0003500371500209387470213054530411134
:1039B0003E9506C6EF00F047B240410182804111BA
:1039C00022C4371400201304443022851306800CCF
:1039D000814506C626C24AC0EF100020F1679387D2
:1039E00007201CC47D57A147B715002037150020BC
:1039F000A302E4002307F4009385C53301478546FD
:103A00001306000413054531A38D0186EF005036DF
:103A10000547B715002037150020BA869385C537AE
:103A20001306000413058532EF0090343719002087
:103A30001305C93BEFC0DFFDB71400201385443CDC
:103A4000EFC01FFD1309C93B9384443C232024038A
:103A500004D8B240232E0400232A040222449244B4
:103A6000024941018280B717002093874730945B59
:103A7000985395C219CB23AE070023AA070223A8A7
:103A8000070223A007020545828023AA070223A874
:103A900007020545828065DB23AE0700DDB783C7DB
:103AA000B18741113717002006C61307473013F6B8
:103AB0001700232007002302070001CE898B371748
:103AC000002085C7B24013058732854541016F103C
:103AD000A00A3715002013054531EF10000583C7F4
:103AE000B18737170020898BF1FF13058732EF105C
:103AF000C003B240371700201305873285454101C6
:103B00006F10800783C755000947639EE70003C70E
:103B10006500631AF700B71800209388483083C700
:103B2000280089C70290014842858280011106CE93
:103B300003C72500930740022A832380E80003C7B8
:103B400005002548BA9503C71500BA86631EF7001D
:103B50006368060383C70500BE9503C71500C297B7
:103B600033C80708E306D7FE9546BA876303D70232
:103B700011476397E70003C75500A9476309F70496
:103B8000014542C2EFF03FB31248F2404285056161
:103B900082801A8542C62EC41AC2EFF04FF2B717C0
:103BA00000201243A24532489388473011CD83C785
:103BB0002500A380F80003C70500BA95429783C784
:103BC0001500334807086DB7029001487DBF83C8D0
:103BD00005008946B717002037170020C6951A85BB
:103BE0009387673013077730368642C446C2EFF0BA
:103BF000EFE09248224869D93908C29833C80808CA
:103C000041B7834706001307000293F70706639343
:103C1000E702034756003718002083464600130882
:103C20004830834808002207558F81466387E800A3
:103C300036858280814636858280011106CE034713
:103C4000160093082002630C170763E0E80263067E
:103C5000F704930710026316F7008547638BF50A94
:103C60008546F24036850561828093073002E31A6B
:103C7000F7FE85476388F50AF515FDF19307000007
:103C8000E5D383473600834526000145A207DD8D35
:103C900097000000E7000000E1B78547638BF50659
:103CA000B7270010938727D8C5DFF515D5F9B715C5
:103CB00000209385C5300145EFE0AF8C55B78547AF
:103CC0006382F5068D47E39DF5F822CC83473600E5
:103CD0000347260037150020A20733E6E700854793
:103CE000B3F5E740130585322302C80032C61374CA
:103CF0001700EF007068930700008DCB3246A28555
:103D000001451356164897000000E7000000624482
:103D100081BFB7170020B2859D461386C730EFF0EC
:103D2000AFEF3DBFB285EFF00FE91DBF62440DBF9D
:103D3000797122D43714002026D24AD04ECE06D62E
:103D40001304443083473400AE84AA8936896389DA
:103D5000B70883472400638CB70202900145B25034
:103D6000225492540259F24945618280930700001F
:103D700081CBB717002013854731EF00700A61CD62
:103D80000145EFF05F9383472400639E97009307FC
:103D9000000091C7014597000000E70000000145C1
:103DA000EFF03FAD19C105455DBF37150020130584
:103DB0008532EF007004E30809FE75F59377F90387
:103DC000FDF3834524004E85EFF06FD469DD834514
:103DD00024004E8581460146EFF0AFD7054541B737
:103DE000B717002093854728B71700201385473160
:103DF00033C60608EF00F0361307000025DB034743
:103E000054009306F00FE303D7F6E30109F6B71762
:103E10000020938747283306F90031A08507E38700
:103E2000C7F40347540083C60700E399E6FE3EC487
:103E3000B71700201385473132C6EF00607EA247D6
:103E4000324669FD8345540097000000E7000000FA
:103E50003246A247E1B797000000E70000000DB727
:103E60003715002041111306C02481451305455D17
:103E700006C6EF0070563718002037170020371598
:103E8000002013084855130707729308000493078E
:103E900000108146014681451305C56FBD29B2401A
:103EA000371800203717002037150020130848590D
:103EB0001307C75F1305855D93080004930700107F
:103EC000814605468145410189A9371500204111E8
:103ED0001305C56F06C64D29371500201305855DEE
:103EE0006521B240054541018280411122C4371548
:103EF00000203714002006C61304445D13054570E6
:103F000023000400EF007042371500201305055E02
:103F1000EF00B041A3040412A3020400B240224403
:103F20004101828003C755009307F00F6304F70037
:103F300001458280797152CC371A002006D64ECEC8
:103F4000130A4A5D83495A0083479A12B3E9F9007C
:103F5000639A090E56CA5AC822D403C7250003C45F
:103F6000050083C745002300EA002A8BAE8A2E9401
:103F7000CDC737170020B717002026D24AD05EC61B
:103F800062C466C2B304C400130C4770938CC76F3D
:103F90001549854B31A0637D9406834704003E9408
:103FA00083471400E39927FF63749406A2855A851A
:103FB000EFF0EFB03DCD834724009D83638A7709FE
:103FC0006285EF0090368347240003478A12E68516
:103FD000A304FA128347540083464400759BA2074A
:103FE000D58F93F7F77F938707E093B7170086077E
:103FF000D98F5A852304FA12A52905CD0347040059
:1040000083C74A00850993F9F90F3A94E3EAF9F86E
:1040100092540259B24B224C924C33055441B25047
:104020002254D24A424BF249624A3345050845615F
:1040300082800290225492540259D24A424BB24B8F
:10404000224C924CB250F249624A0145456182804D
:10405000371500201305055EEF00302D834724003F
:1040600003474A00B7150020A302FA008347540013
:1040700083464400759BA207D58F93F7F77F9387FC
:1040800007E093B717008607D98F9385855D0145B3
:104090002302FA00AD269DB70111B717002006CE06
:1040A0009387475D03C797122A886307B70483C7BE
:1040B00057006386B700F24001450561828093078F
:1040C000000081CF2AC6B3C50608014536C4970053
:1040D0000000E70000003248A246B7170020938591
:1040E000875D428536C642C4192EB717002039CDE8
:1040F0000545F2400561828003D747130DEB930716
:10410000000091CFB715002033C6060893854555AA
:10411000014542C497000000E70000002248B7159F
:10412000002042859385C56FA1260545D9B783A593
:10413000C7122AC63715002033C606081305457076
:1041400036C4EF0010023248A24655BF324622451F
:104150009385875D252C054569BF011106CE8DC964
:10416000854663E2A602984119CF1386F187B347CB
:10417000C52098C36306D700F240054505618280DB
:10418000EFE08FFD75F902900145F24005618280F4
:1041900085472C0001453EC402C6EFE0EFFB854792
:1041A00019E10290DDB7A3AFF186C5B783470500DB
:1041B000858BB1E7834605002A8793D6264899C2A6
:1041C0003E85828001112E852EC4FD553AC606CE4D
:1041D00097C0FF0FE78060F83247A2468347070089
:1041E000858B8DE3034607001356264809EE0346E8
:1041F00007008547136646002300C70029A08147B2
:104200003E858280814736853EC497C0FF0FE78098
:1042100020F9A247F2403E850561828041114AC0E3
:104220002E8926C2FD55AA844A8522C406C697C097
:10423000FF0FE78080F203C404001354244809EC04
:104240004A8597C0FF0FE780A0F5B240228522443F
:10425000924402494101828083C70400858B99E71B
:1042600083C70400ED9B2380F400D9BF0144C9BF7C
:10427000834755000347450003453500A207D98F02
:104280000D89094793F7F77F630AE5028D46630DB1
:10429000D50005476312E502F91593B5150093851E
:1042A000F53F63EAF5008280930600046386E50229
:1042B0000545E3FAF6FE0290014582806388A50079
:1042C000130700040545E368F7FE8280130700200A
:1042D0000545E392E7FE828093060040D1BF2E960B
:1042E00063FCC500154883C715006388070183C7B1
:1042F0000500BE95E3E9C5FE828003C725009377DC
:10430000F707B3A7A7201D83BA972380D70083C7D9
:104310000500BE95E3E9C5FC8280797122D42A8428
:1043200003450500858926D279994AD04ECE4D8D18
:1043300006D6BA852300A4003687B284130584000C
:104340003E8685462EC43EC64289C6891524A245AE
:1043500099C1B24789EF2322240123113401B250BD
:10436000225492540259F249054545618280130551
:10437000C4012AC4EFC0CFE92245814799C0AA876A
:1043800001455CC808CCC1BF0545828083C70500D4
:1043900001114AC893D71748FD172A89138585004C
:1043A00022CC26CA32C606CEAE8413F407E4A92472
:1043B000324611CA09E91304F41F618E09E683C766
:1043C0000400858B81CB0145F2406244D2444249CE
:1043D0000561828083C514004A85EFE05FF365D5EF
:1043E00083C70400858B99C30290F1BF83C5140075
:1043F0004A8581460146EFE0DFF579F5F5B7011111
:104400004AC82A891385850022CC06CE2E84ED2247
:1044100009C583470400858B99C70145F240624472
:10442000424905618280834514004A85EFE03FEEF2
:104430006DD5035624004C4013058400092683479C
:104440000400AA86858B01C591CB0290F9B7F1F7DC
:10445000834514004A85EFE0BFEDC1B75040834566
:1044600014004A8536C6EFE0DFEE65D132457DB7F0
:1044700083D6C500797122D406D603C70500AE875E
:104480002A8481EA058B29C70145B250225445612F
:1044900082804ECE26D24AD0098BC1690DE793891E
:1044A00009FC130900049384870026853EC6512227
:1044B00063672501B24703C70700058B1DC79254E8
:1044C0000259F249D1B7938909E013090020E1BFED
:1044D00083C515003EC6EFE09FE35DD5B24703C735
:1044E0000700058B1DC7029045B783C517002285BD
:1044F000EFE0FFE169D526852D2AB24703C7070003
:10450000058B6368250321C3029092540259F24936
:10451000A5BF83D6270083C51700014691C2D043AB
:1045200022853EC6EFE0FFE25DDDB24703D52700FE
:10453000A9BF51F783C517002285EFE07FDF9254B2
:104540000259F24991B783D6270033F7A90083C5F2
:104550001700B3D6E60A014691C2D043228536C67B
:10456000EFE03FDF55D1324592540259F24931BF55
:10457000A16763E1C708011122CC2A84484526CAF5
:104580004AC84EC652C406CE3A8AB6892E89B2842B
:1045900011C5FD5597C0FF0FE78020BC084811C525
:1045A000FD5597C0FF0FE78040BB93961901C58268
:1045B0001317FA004844558F231504002313E40011
:1045C00023202401231294002314040009C597C05A
:1045D000FF0FE780E0BC084809C597C0FF0FE780E0
:1045E00020BCF2406244D2444249B249224A0545C5
:1045F0000561828001458280835685000357A500AE
:1046000003554500B3C706083346070863F4E600C0
:10461000B327F520918FB3C707083355F50A828079
:10462000835785000357A5003385E74013351500F0
:104630008280035685008356A50003574500B34783
:104640000608B3C506086374D600B327F7208D8F1C
:10465000B3C707083335F7007D151D8F798D3345B6
:1046600005088280011122CC2A84084926CA06CE78
:10467000AE8411C5FD5597C0FF0FE78000AE83558E
:1046800084008356A4000357440033C60508B3C70B
:10469000060863E0D508B306F640B3C60608C1C2F3
:1046A0006361D70663E7E700998FB3C70708E3FDA7
:1046B000E7FE035664000C40268546064582B38714
:1046C000C702BE95C52B8356A400035744009387A9
:1046D0001600B3C7070863F2D70606078546814769
:1046E000998F08482315F40019C536C697C0FF0FE7
:1046F000E78000ABB246F2406244D24436850561A1
:1047000082806366E602198EB34706082315F4001B
:1047100051BFB326C7209D8EB3C60608D1F283577A
:10472000A400B3C707080607E3CDE7FA55BF3A96DA
:10473000B34706082315F400B5B78546EDB7011158
:1047400022CC2A8408494AC806CE26CA2E8901C925
:10475000FD5532C097C0FF0FE78020A002460355E9
:1047600084008355A40003574400B3460508B3C72B
:1047700005086366B50EB384F640B3C40408F5C4F7
:104780006366970C3356960AB344060863E7E7005E
:10479000998FB3C70708E3FDE7FE035864000C4098
:1047A000B306F74046081358180133860703B3C60B
:1047B0000608B29563F79606B38606034A853EC699
:1047C0003AC442C233C6060832C0ED212247B2477E
:1047D00012483387E440BA973308F80202460C4087
:1047E0003305C90033460808F1210356A4000357D6
:1047F0004400B3079600B3C707089316170063F287
:10480000C704958F08482315F40009C597C0FF0F0A
:10481000E7800099F240624442492685D24405610E
:104820008280338604034A8571210356A40003570E
:104830004400B3079600B3C7070893161700E3E2D6
:10484000C7FC93161700E3CFD7FA65BF63F8E602FB
:10485000BA96B3C706082315F400BA8425B7B32463
:10486000D7209D8CB3C4040881FC8357A400931601
:104870001700B3C70708E3C7D7F861B7998EB3C766
:104880000608D1BF011122CC2A84484526CA06CE8B
:10489000AE8411C5FD5597C0FF0FE780008C83568D
:1048A0008400835584000356A40003574400B3C614
:1048B0000608B3C705083345060863F4C500B327E7
:1048C000F720898FB3C70708504063E4E702935786
:1048D000F60163400602484419C53EC697C0FF0F63
:1048E000E780008CB247F2406244D2443E850561C5
:1048F0008280B68763E2E604998FB3C70708E3FDB9
:10490000E7FE1317160013561701B387C7020840B6
:10491000A68536C63E95792EB24603574400938746
:104920001600B3C7070863FAD70206078147998FB5
:104930002314F400854745B79317160013D61701C3
:10494000B307D6020840A68536C63E95A526B246D0
:10495000035744008506B3C706080607E3CAE7FC09
:10496000F9B7630B0610AA884845397106DE328311
:10497000AE8E01CD2EC8FD5546C632CA97B0FF0F88
:10498000E780A07D5243C24EB24803DE880083A672
:10499000480083D7A80003D74800334E0E08B3C79A
:1049A000070863C70608636CFE0CB307FE40B3C775
:1049B000070863FEE70CB307F740B3C7070833D611
:1049C000670A3343060833086E0033480808330F7C
:1049D000E340F2876367EE00998FB3C70708E3FDF2
:1049E000E7FE13961600935616013386D70203A5E9
:1049F00008001D8F334707083295636A670A33063C
:104A0000D302F68546CC42CA72C81AC66524324320
:104A1000424E5248E24883D7480086076364C80183
:104A20006344F8003308F840239408011A879DA0D6
:104A30006371E3066362FE0C3306FE4033460608EC
:104A4000931517001A96330FE3406342B60233887A
:104A5000E70033480808330E6840334E0E0863649D
:104A6000FE00E348BEF6B305BE4033CE050833086A
:104A7000C30133480808B1BF01473A858280332813
:104A8000C721B307F840B3C70708E3E6E7F20147D9
:104A900011A03DEB03A5C80019C53AC697B0FF0F9A
:104AA000E78000703247F2503A85216182803307F7
:104AB000D702F6851AD642D072CC46D47AD23ECEF0
:104AC00036C676CA3346070832C8ED22F247125F6F
:104AD000B246A258FA97B386F6024246D24E03A5D2
:104AE000080046C6B385CE0033C60608E12232531D
:104AF0000258624EB24805B7931517003386F54049
:104B00007296334606083DBF139516003306E34000
:104B1000935515013306B6023388E7003348080879
:104B20003E8E3A83014FB29E6DB5411122C42A8454
:104B3000484506C611C5FD5597B0FF0FE780E061F7
:104B4000084811C5FD5597B0FF0FE7800061484444
:104B5000231504002314040009C597B0FF0FE78054
:104B60002064084809C597B0FF0FE7806063B24032
:104B70002244054541018280411122C42A844845CE
:104B800026C206C6AE8411C5FD5597B0FF0FE7805B
:104B9000C05C084811C5FD5597B0FF0FE780E05B8A
:104BA000835564009397F4004844C605C581DD8DA4
:104BB0002313B40009C597B0FF0FE780605E084873
:104BC00009C597B0FF0FE780A05DB2402244924430
:104BD00005454101828000001303F0001307050022
:104BE000637EC3029377F7006390070A6392050818
:104BF000937606FF1376F600B386E6002320B7000F
:104C00002322B7002324B7002326B7001307070188
:104C1000E366D7FE6314060067800000B306C34056
:104C20009396260097020000B38656006780C60060
:104C30002307B700A306B7002306B700A305B700F4
:104C40002305B700A304B7002304B700A303B700EC
:104C50002303B700A302B7002302B700A301B700E4
:104C60002301B700A300B7002300B700678000004E
:104C700093F5F50F93968500B3E5D500939605015E
:104C8000B3E5D5006FF0DFF693962700970200009A
:104C9000B386560093820000E78006FA93800200F4
:104CA000938707FF3307F7403306F600E378C3F630
:104CB0006FF0DFF3B3C7A50093F73700B308C50063
:104CC000639607061336460063120606937735008F
:104CD00013070500639A070C13F6C8FFB306E640F6
:104CE0009307000263C4D706938605009307070065
:104CF000637AC70203A8060093874700938646009D
:104D000023AE07FFE3E8C7FE1306F6FF3306E640CF
:104D10001376C6FF9385450013074700B385C5008A
:104D20003307C70063681701678000001307050099
:104D3000E37C15FF83C70500130717009385150053
:104D4000A30FF7FEE398E8FE6780000083A6050046
:104D500083A2450083AF850003AFC50083AE050184
:104D600003AE450103A3850103A8C5012320D70095
:104D700083A6050213074702232057FE232ED7FEE2
:104D80002322F7FFB306E6402324E7FF2326D7FFBD
:104D90002328C7FF232A67FE232C07FF938545029C
:104DA000E3C6D7FA6FF05FF483C605001307170058
:104DB00093773700A30FD7FE93851500E38E07F096
:104DC00083C605001307170093773700A30FD7FE9C
:104DD00093851500E39A07FC6FF01FF09377350079
:104DE00013070500639C0704B7867F7F9386F6F759
:104DF0009305F0FF0326070013074700B377D6009B
:104E0000B387D700B3E7C700B3E7D700E384B7FEA3
:104E10008346C7FFB307A740638406048346D7FFD2
:104E2000638C06020345E7FF3335A0003305F50028
:104E30001305E5FF67800000E38806FA8347070053
:104E40001307170093763700E39807FE3307A74050
:104E50001305F7FF678000001385D7FF6780000008
:104E60001385C7FF67800000E0170010801700104F
:104E7000AA17001010180010C4170010FA1600101E
:104E80000C180010E8160010AA090010420E0010BD
:104E90003E170010F61700103019001038030010EC
:084EA000DA22001024010010C9
:104EA8000A2A2A2A2050414E4943202A2A2A0A003F
:104EB8000A0000004E6F207370696E6C6F636B732D
:104EC8002061726520617661696C61626C650000C1
:104ED8004E6F207573657220495251732061726557
:104EE80020617661696C61626C650000486172647A
:104EF8007761726520616C61726D20256420616C38
:104F0800726561647920636C61696D656400000095
:104F180048617264206173736572740052656C65D0
:104F280061736500626F6F74325F77323571303844
:104F380030000000322E322E300000007069636F9E
:104F4800320000006E6575726F666C696768740080
:104F580053657020313820323032350055534220A5
:104F6800737464696E202F207374646F7574000005
:104F78005261737062657272792050690000000096
:104F88005069636F00000000426F617264204344FF
:104F9800430000005265736574000000556E686137
:104FA8006E646C65642049525120307825780A0077
:104FB800657020253032582077617320616C7265E6
:104FC80061647920617661696C61626C65000000DA
:104FD80043616E277420636F6E74696E75652078FF
:104FE800666572206F6E20696E61637469766520EC
:104FF800657020253032580006005250D3F07542B3
:10500800244F001006005250E182887F2C4F001078
:1050180006005250ABB360533C4F0010060052508C
:10502800BBFF3CB6444F001006005250861C0302DA
:105038004C4F0010060052505422A29D584F0010A9
:1050480005005250DE65F468D463001000000000CB
:10505800781C0010000000007A1C0010801C001052
:10506800B61C0010B21C0010000000000A0000006E
:1050780000000306A6000800020002009C001400BD
:10508800030057494E55534200000000000000003D
:10509800000080000400010028004400650076003C
:1050A80069006300650049006E00740065007200C5
:1050B8006600610063006500470055004900440030
:1050C80000004E007B0062006300370033003900A7
:1050D8003800630031002D0037003300630064009E
:1050E8002D0034006300620037002D0039003800BD
:1050F800620038002D0039003100330061003800AB
:1051080066006300610037006200660036007D00BB
:1051180000000000050F2100011C100500DF60DD04
:10512800D88945C74C9CD2659D9E648A9F00000320
:1051380006A60001000000000600525053B4F4A176
:10514800644F001000000000784F0010884F0010D6
:10515800901C0020904F00109C4F00100902540032
:10516800030100807D080B00020202000009040010
:1051780000010202000405240020010524010001A9
:10518800042402060524060001070581030800100F
:1051980009040100020A000000070502024000009D
:1051A800070582024000000904020000FF00010513
:1051B80012011002EF0201408A2E090000010102CB
:1051C80003010000482C0010022C0010242C0010B1
:1051D800142C0010322C0010F42B0010542B00104B
:1051E800022B0010F82A0010782E00105A2E0010FA
:1051F800DC2B00109C2E0010DC2B00103C2E001025
:105208001A2E0010DC2B0010022E0010C02D0010EA
:10521800DE2B00106C3100105A3100104C31001098
:10522800DE2B0010DE2B0010303100105A31001038
:10523800DE2B0010DE2B0010DE2B0010DE2B001002
:10524800DE2B0010DE2B0010DE2B0010B62F001016
:10525800360C0020360C0020A20C0020CE0C0020BA
:10526800380D0020540D00202C0C002000000000F8
:10527800BE390010663A00109E3A0010043B001038
:10528800023C0010303D001000000000000000004B
:10529800603E0010CA3E0010EA3E0010243F001095
:1052A800341D001098400010000000000D0A000096
:1052B800005000100C50001018500010245000101E
:1052C800305000103C500010485000104051001061
:1052D8001C412A87F3760430139637003316C0280A
:1052E800F19B2FA5C744718D6DFD0F003003830717
:1052F800470063CE070091C19CC101451C430F00C4
:10530800300323800700A18A73A006308280B70784
:1053180000D09C4305452302F7001C430F003003CF
:1053280023800700A18A73A006308280B70700D0C7
:105338009C43011122CC26CA4AC84EC606CEBE845A
:105348002A842E89B28931A80F0030032300070070
:1053580073A007304A85CE85971000F0E780E026D5
:1053680031E51C407377043093963700B316D02884
:10537800F19B2FA6D744758E6DFE0F003003830670
:105388004400937787001840E3D006FC230294007A
:105398000F0030032300070073A00730F240624477
:1053A800D2444249B249054505618280F2406244CF
:1053B800D2444249B2490145056182801C41737754
:1053C800043093963700B316D028F19B2FA8D74402
:1053D8003378D800E31C08FE0F003003830645002D
:1053E80093778700184163C206020F003003230039
:1053F800070073A00730B70700D00387070081476D
:105408006314D7003E85828015B7B70600D0944252
:105418002302D5000F0030032300070073A00730D4
:1054280085473E858280411122C426C22E8406C645
:10543800AA84971000F0E780802E1307803E330679
:10544800E402B7070080FD173334E402329533369F
:10545800C5002E94229663F4C7003E867D552244EB
:10546800B240AA85268592444101C9B51C4173778B
:10547800043093963700B316D028F19B2FA6D74453
:10548800758E6DFE0F003003FD572302F5001C4199
:105498000F00300323800700218B7320073033204F
:1054A80010008280411106C6B707105023A40700D8
:1054B80023A6070023A8070023AA070023AC070098
:1054C80023AE070023A0070223A2070223A4070292
:1054D80023A6070223A8070223AA070223AC070270
:1054E80023AE070223A0070423A2070423A407046A
:1054F80023A6070423A8070423AA070423AC070448
:1055080023AE070423A0070623A2070623A4070641
:1055180023A6070623A8070623AA070623AC07061F
:105528003725002023AE07061305058B1306003C1C
:105538008145975000F0E7806097B240B707105058
:1055480093870718A3ABF184410182807971B7076B
:1055580011505AC803AB870506D6630D0B0652CC0B
:10556800372A002022D426D256CA4AD04ECE014429
:105578008544130A0A87B73A115011A80504137411
:10558800F40F930704FE8604A1C3638F0902B3775F
:105598009B008549E5D70547B37787401379E40F22
:1055A8003E991609529923AC9A044A85EF00100DCA
:1055B80015E505041374F40F337B9B40930704FE31
:1055C800B33960018604F1F3225492540259F24926
:1055D800624AD24AB250424B4561828083462900D2
:1055E80003576901930700704800CE85A3040100A2
:1055F8002304D1003AC62312F100EF00D00D4A85EA
:10560800EF00E07A7DB77971B707115026D283A4ED
:10561800870922D43704020006D6658CC14765C8BD
:1056280037070B40B727002010579387078783C693
:10563800B703A3ADC184094701446387E63083C635
:10564800B70709476386E61E83C6B70B0947638B0E
:10565800E61E83C6B70F0947638AE62083C6B713D9
:105668000947638DE62483C6B71709476384E62292
:1056780083C6B71B09476383E62883C6B71F094754
:10568800638CE61C83C6B72309476383E62883C671
:10569800B7270947638AE62083C6B72B0947638B78
:1056A800E62883C6B72F0947638CE61C83C6B73341
:1056B80009476388E62683C6B7370947638AE62021
:1056C80083C6B73B0947638DE62C83C6B73F0947B6
:1056D8006388E62A11E883C7318599E7B7371150FF
:1056E8003707020023A8E708B7071150BC4713077C
:1056F8000030854593F7F77F48083ECC231AE10030
:10570800EF00607DB7070200C1073704020013F7F6
:105718000401631B07109397F40063D60704372529
:105728000020130505878347A50113140429094799
:105738000548ADE3A3010501130505026318070534
:1057480093070060231AF100B70710509443BA85F5
:10575800480836CCDC433ECEEF00E077B73711502F
:1057680037070200B8CB9397340163CA07089397A9
:10577800140163C807069397040163C50704631DF2
:10578800943CB25022549254456182808347A501CB
:105798000547CDD3B7271150B8D3B7061150FC52DF
:1057A800F98FE39EE7FE0D6681453AC62AC439257E
:1057B8002245F52B3247B73711502245F8D3B8D3D5
:1057C80005488DBF9307005085454808231AF10006
:1057D8001927B73711501317B0281314F428B8CB6A
:1057E80079BF9307004085454808231AF100E5254D
:1057F800B737115041471314E428B8CBADBFB707EA
:10580800115023A0070079399307001048088545EF
:10581800231AF10002CCC125B73711503707080009
:105828001314C428B8CBA1B73EC40D332244E5B540
:1058380003C7A707E30A07E083C6C7076395062CD3
:105848003A8419B503C7A70BE30507E083C6C70B5E
:10585800639C06283A84F5BB03C7A71FE30407E245
:1058680083C6C71F639406243A8429BD03C7A70FBC
:10587800E30607DE83C6C70F639B06203A84F9BB9D
:1058880003C7A72FE30407E283C6C72F6392061E48
:105898003A8429BD03C7A717E30C07DC83C6C717DB
:1058A8006399061A3A84E9B303C7A727E30607DE14
:1058B80083C6C727639006183A84F9BB03C7A713A2
:1058C800E30307DA83C6C713639706143A8461BBF8
:1058D80003C7A737E30607DE83C6C73763940624E2
:1058E80003C6B73B89466305D60803C7B73FE31D20
:1058F800D7DE03C7A73FE30907DE79A003C7A71BC5
:10590800E30D07D683C6C71B6398060E3A84B5B362
:1059180003C7A723E30D07D683C6C723DDEE3A8462
:10592800BDB303C7A733E30807D883C6C733D9E68F
:105938003A8451B303C7A72BE30507D683C6C72B01
:10594800639506183A84B1BB03C4A703E30904CEE0
:1059580003C7C703E30507CE3725002013050589CC
:10596800238E07027521B727002093870787C1B9BF
:1059780083C6A73B95EA83C6B73FE397C6D63A8462
:1059880003C7A73FE30807D403C7C73FE30E07D4FD
:1059980037250020130505C5238E073E9529A9B391
:1059A80003C7A73BE30307D203C7C73B631A07181C
:1059B80083C6B73F0947E399E6D225BF37250020BC
:1059C800130505B93AC4238E073299212247B72710
:1059D8000020938707873A84F9B9372500201305F3
:1059E80005A93AC4238E072225212247B72700207C
:1059F800938707873A8461B937250020130505A1E5
:105A08003AC4238E071A29212247B72700209387F3
:105A180007873A849DB137250020130505993AC4B4
:105A2800238E0712F5262247B7270020938707877A
:105A38003A8415B937250020130505AD3AC4238EDD
:105A48000726F9262247B7270020938707873A8435
:105A5800A1B1372500201305059D3AC4238E0716EA
:105A6800452E2247B7270020938707873A8409B134
:105A780037250020130505B53AC4238E072E492E75
:105A88002247B7270020938707873A8405B137252F
:105A98000020130505953AC4238E070E952E22473C
:105AA800B7270020938707873A844DBE3725002003
:105AB800130505A53AC4238E071E992E2247B7273A
:105AC8000020938707873A8475BE37250020130581
